:020000041000EA
:10000000002008205D0100101B0100101D010010E0
:100010001101001011010010110100101101001058
:100020001901001019010010190100101F01001022
:10003000110100101901001021010010230100100E
:100040001101001011010010110100101101001028
:100050001101001011010010110100101101001018
:100060001101001011010010110100101101001008
:1000700011010010110100101101001011010010F8
:1000800011010010110100101101001011010010E8
:1000900011010010110100101101001011010010D8
:1000A00011010010110100101101001011010010C8
:1000B00011010010110100101101001011010010B8
:1000C00011010010110100101101001011010010A8
:1000D0001101001011010010110100101101001098
:1000E0001101001011010010110100101101001088
:1000F0001101001011010010110100101101001078
:100100001101001011010010110100101101001067
:10011000EFF30580103800BE00BE00BE00BE00BE7A
:1001200000BE00BEF2EB8871A0100110CC100110CF
:10013000A001001090A31AE7D3DEFFFF42012110B7
:10014000FF010000E82E0100793512AB4FF00000EE
:100150001E49086006C881F3088810474FF05040D8
:10016000006810B14FF00000F2E70DA40ECC00299A
:1001700002D000F012F8F9E71549164A002000E015
:1001800001C19142FCD11449884714498847144958
:10019000884700BEFDE701C901C29A42FBD3704700
:1001A000CC1001101001002064200020203001102C
:1001B0000000082000000820203001100010082056
:1001C00000100820000000007047000008ED00E06B
:1001D0006420002034260020A53E0010A504001055
:1001E0009D3E0010F8B500BF0348044B834202D087
:1001F000034B03B11847704764200020642000209F
:1002000000000000064B0749C91A891048BF013198
:10021000491003D0044B0BB101481847704700BF89
:1002200064200020642000200000000010B5064C6F
:10023000237843B9FFF7D8FF044B13B10448AFF359
:1002400000800123237010BDF82100200000000071
:100250009869001008B5044B1BB104490448AFF37A
:100260000080BDE80840CDE700000000FC21002030
:10027000986900100120084A084913780344DBB24A
:10028000137008701378052B04D9002304491370E8
:1002900008701846704700BF302600203126002025
:1002A00032260020604B2DE9F0411A781AB15968C6
:1002B000884200F0A880197D19B19C69A04200F025
:1002C000A68093F828401CB1DD6AA84200F0A18006
:1002D00093F83C501DB11E6CB04200F09C8093F826
:1002E00050601EB15F6DB84200F0978093F8648053
:1002F000B8F1000F03D09F6EB84200F0908093F8E1
:1003000078C0BCF1000F03D0DF6FB84200F08980E5
:1003100093F88CE0BEF1000F33D1002A4AD00029B7
:1003200075D0002C75D0002D75D0002E75D0B8F189
:10033000000F74D0BCF1000F73D03B4A02F18C0364
:10034000BEF1000F14BF14461C46012523788540DA
:10035000002B32D04FF050435B681D4014BF012684
:10036000002602F081FA01B34FF47A72002306F0FE
:10037000C7FA237AB3420AD0E06026720020BDE8B3
:10038000F081D3F890308342C7D1284CDDE7E36891
:10039000C01A1E28F2D9637AB342EFD066727DBBD1
:1003A000207C0028EAD02574E9E7214AA2FB00203E
:1003B0008009DEE701251C4C85404FF050420121A9
:1003C00052684FF000032A4214BF0A46002262F32B
:1003D000070362F30F2360602170238102F044FA67
:1003E00041B9134AA2FB0020800940F20113E060EA
:1003F0002382AFE74FF47A72002306F081FAF4E724
:1004000001232374BAE701251C468540A2E7094C65
:100410009BE7094C99E7094C97E7094C95E7094C8C
:1004200093E7094C91E700BFFC190020881A0020CF
:10043000D34D6210101A0020241A0020381A002010
:100440004C1A0020601A0020741A00201C2808D0C2
:100450001B2800D0704719234FF0010242EC4030B6
:10046000704719234FF0000242EC4030704700BF44
:1004700000B585B0094803AB02AA01A902F0F4FB5C
:1004800018B90649064801F0EBF90198DDE90212B6
:1004900002F028FB05B05DF804FB00BF48E801004E
:1004A000986900102DE9F04F97B0FFF7E1FF0124A4
:1004B00003F0F4FD102316211A46019400940EA8AF
:1004C00000F016FB1C2001F0A7F900221C20214699
:1004D00001F038F94FF000051C2345EC44301B2097
:1004E00001F09AF905211B2001F00EF900221B20D2
:1004F000214601F027F91B2345EC44300EA800F0FB
:10050000ADFB00210EA800F0EFFB224600210EA853
:1005100000F0BCFC02F0A8F9FFF7AAFF00231D467B
:100520009B46DFF84CA3069305939AF80040002CF5
:1005300000F09980012C00F0E980022C00F0BC80D2
:10054000033C012C00D9FEE7C04B1B78042B00F2C2
:10055000F0812C23BE4C03FB0543B3F828904FEAEF
:10056000A9030793BB4B1A78002A40F0BA81BA4E10
:10057000BDF9183006EB03162C2707FB05470021B1
:100580000EA800F0B1FB0EA800F068FB97F82680DB
:1005900059463046B8F1000F00F0808100F032FF7C
:1005A00005998346304600F02DFF4FF440334FF05D
:1005B000000802931023CDE9008897F827205946B8
:1005C000039283461A460EA800F0A6FB4FF4C02300
:1005D000029397F82730594603931023CDE90088FA
:1005E0001A460EA800F098FB2C2707FB05470121AF
:1005F00000220EA800F04AFC079802F017F80EA897
:1006000000F02CFB97F8268030460599B8F1000FD2
:1006100000F0808100F0F6FE4FF4E0220023029209
:1006200097F82720CDE900331023014603920EA846
:100630001A4600F071FB002201210EA800F026FCF2
:10064000484601F0F3FF2C2202FB0544059962693C
:100650004B1C93428B4600D300239AF8004005932D
:10066000002C7FF467AF012204211C207B4B01F09A
:100670007DF87A4B012204211B2001F077F80EA8A7
:1006800000F0ECFA21460EA800F02EFB01222146D4
:100690000EA800F0FBFB30BF042122461C206F4B4C
:1006A00001F064F86D4B224604211B2001F05EF836
:1006B00001238AF8003038E702F0D6F8002900F06C
:1006C000E8804FF47A72002306F01AF90446644A6F
:1006D000136803B914601C20FFF7E4FD002800F044
:1006E0004F81002401F084FE08ABCDE901435D4B4E
:1006F0005D4A0093002302F00DF8002800F06281AB
:10070000574B1C6003238AF800300EE70EA8524FA7
:1007100000F0A4FA554800F073FC3B78002B40F041
:1007200014813B7C002B40F0178197F82030002B80
:1007300040F01A8197F83030002B40F01D812C26B4
:10074000102305FB06F6424C0093A15901222644D2
:10075000464800F063FC727E317E444800F024FD80
:10076000F27EB17E414800F083FD4048727F317FC8
:1007700000F0E2FDD6ED087AF5EEC07AF1EE10FA5F
:1007800004DD17EE901A394800F082FC2C2303FB9D
:1007900005439A8C002A40F001814FF02C0909FB97
:1007A00005494E462C4F07F1400859F8041F29B35C
:1007B000102372693846009300F030FC727E317E5F
:1007C000384600F0F1FCF27EB17E384600F050FD74
:1007D0003846727F317F00F0AFFDD6ED087AF5EE36
:1007E000C07AF1EE10FA04DD17EE901A384600F0E8
:1007F0004FFCB38C13BB10374745D6D12C2303FBDA
:10080000054393F82640ACB30021184800F0FAFDE8
:1008100000234FF4E062CDE90033CDE90223102339
:1008200001461A460EA800F077FA002201210EA810
:1008300000F02CFB02238AF8003076E6384696F862
:10084000252096F8241000F0EFFDD4E73026002094
:100850002019002031260020AC2500204D04001076
:100860002C2500207502001080969800EC250020B1
:10087000322600202146574800F0C4FD10230146CF
:100880001A46CDE90244CDE900440EA800F044FA2E
:10089000CBE7514BA3FB0034A40918E700F0B2FDED
:1008A00005998346304600F0ADFD1023CDE901885F
:1008B000CDF8008097F827205946039283461A46C0
:1008C0000EA800F029FA102397F827205946039222
:1008D000CDE901881A46CDF800800EA800F01CFA78
:1008E00082E6069A3D4F0132D6B20022032E0696CA
:1008F00088BF16461A704FEA0613FB5C88BF069243
:10090000002B069B08BF002307EB0616069308BFC3
:100910003E4631E600F076FD102397F82720014689
:10092000CDE90282CDE900881A460EA800F0F4F95C
:1009300081E62C222A4C2B4B02FB0542B2F82A906E
:10094000A3FB09239B0807930CE6384600F058FBED
:100950003B7C002B3FF4E9AE234800F051FB97F8B5
:100960002030002B3FF4E6AE204800F049FB97F81A
:100970003030002B3FF4E3AE1D4800F041FBDEE6D3
:100980001B20FFF78FFC88B11A4B01351C60012337
:10099000052D28BF00258AF80030C6E593F82520EC
:1009A00093F824100B4800F03FFDF6E647F22F5372
:1009B00010490A68A41A9C427FF6B7AD08608AF80D
:1009C0000000B2E50C4803F0B1FB012017B0BDE810
:1009D000F08F00BFEC250020D34D6210AC25002025
:1009E00020190020ABAAAAAABC250020CC250020F3
:1009F000DC2500202C250020CC69001000232A4A89
:100A00002A49128830B44A85294A2A4C12882A4831
:100A1000A1F85420294A2488006812680C850864CB
:100A2000CA66274C2748284A248800881288A1F8DB
:100A30005640A1F88000A1F88220244C244A254881
:100A4000246812880088C1F89840A1F8AC20A1F869
:100A5000AE00214C214D224A22482D681268B4F87C
:100A600000C000884D61C1F8C420A1F8D8C01E4A5A
:100A7000A1F8DA001D495360D360C1E90033C1E930
:100A8000023330BC13705361D36113745362D36269
:100A900082F820305363D36382F8303093609361DF
:100AA00093629363704700BF1C6B001020190020F5
:100AB000268B00101E6B0010288B0010309B00103E
:100AC000248B00102E9B00102C9B001038BF0010B0
:100AD00036BF001034BF00103EE70010206F00103A
:100AE00040E700103CE70010AC250020EC2500207A
:100AF0002DE9F0410025044688B062F307059DF812
:100B0000386063F30F259DF83C304E4866F3174577
:100B100063F31F652170E5614B49606003F03AFCA7
:100B200003460121E360606803F018FC4FF4803352
:100B3000E768464A04930692FB01FA1C666843EA9A
:100B4000023394F8008023F0C04343F0804306F161
:100B50002F41059301F560014FEA88234FEA4812BF
:100B600002F47872090D03F4F8431343063143F09D
:100B700088430546C9B2A0604046079300F0C4FD13
:100B80000123424600932946304603F07FFC0520AE
:100B900001F0A2FF07EE100A9FED2D6AB8EE477A2A
:100BA000DFED2C6AC7EE067A77EEA67ABCEEE77A1E
:100BB00017EE103A9AB2002A41D007EE102AB8EE8A
:100BC000477ADFED256A77EEC77A67EEA67AFCEE04
:100BD000E77ACDED037A9DF80C301B0243EA02431D
:100BE00029463A460493304604AB03F095FC0122B3
:100BF0006FF060413068AA40237F0243A07F3260DB
:100C000013FB00F0627FE37F606112FB03F303FBE1
:100C100000F08842A3612CBF4FF0FF30800003F04A
:100C2000FDF8D4E9053203FB02F220611AB100217C
:100C3000920004F0B1FC204608B0BDE8F0811346F4
:100C4000CCE700BF00002050440B011000000670EC
:100C50000024F44A0000003B00008043F8B505463C
:100C600001244FF000474FF4FA70002101F0C6FC58
:100C7000D5E90123166803EB430004FA03FC02EBF9
:100C8000C00101F5865126EA0C060433166004FA09
:100C900003F30F610F6102F500510B60EB681168FF
:100CA000053302EBC00003F01F0341EA0C011160A1
:100CB000C0F8D8300021502001F0A0FCD5E9012374
:100CC000E968181D04FA00F09C4003EB430302EBB3
:100CD000C30301F01F0102F500552860C3F8D810C6
:100CE00013681C431460F8BDD0E9053202FB03F31E
:100CF00083B1002210B40369A3F1040C4CF8041F63
:100D000043698469013204FB03F39342F6D85DF82A
:100D1000044B7047704700BF2DE9F04F83B09DF83A
:100D200030B09DF834509DF83C40002B49D0002A4B
:100D300047D01E460E9B8846002B45D000238A468E
:100D4000B046A1F1040913FB02F707F18041013914
:100D500017445E46CDE9003205EB030C0AEB810136
:100D600009EB87070FE04269B24208D983699C45C5
:100D700005D20CFB026E0E9B026942F82E308F42A8
:100D800006F1010617D051F8042F002AEBD1002CF0
:100D9000F5D14269009BB24205EB030EEFD983699E
:100DA0009E45ECD20EFB026E02698F4242F82E4045
:100DB00006F10106E7D1DDE900320133DBB29845E7
:100DC000C1D803B0BDE8F08FA4B39E466FF0404A8F
:100DD000B446A1F1040912FB0EF606EB0A0308EB78
:100DE0008303CDF8008059469046164409EB8606E9
:100DF00053F8042F72B1446905EB0E078C4201943D
:100E000008D98469A74205D2019C04FB071407692D
:100E100047F824209E4201F10101E9D10EF1010EB3
:100E20005FFA8EFEF4454246DDF80080D3D803B069
:100E3000BDE8F08F8A46A1F1040904EB050E5F4678
:100E4000F04614FB02FC0CF18043013B94440AEB96
:100E5000830309EB8C0C0092D0F814E00433BE45F8
:100E600008D98169884505D208FB0E7E01691A6898
:100E700041F82E20634507F10107EDD10134E4B2BA
:100E8000A642009AD9D803B0BDE8F08F2DE9F04F03
:100E900004468FB064200D4600210B9201F0AEFB9A
:100EA000E07F002800F0A980A17F002900F0A58044
:100EB000237F94F81DA05A1ED6B252B20293039615
:100EC00000230692BAF1000F00F094800B9A09916A
:100ED00082F001020792D3461A461946AE46002711
:100EE0000A923B463A467746CDE90C10DDF82CA035
:100EF000CDF804B000210398029E00EB020C0CF127
:100F0000010006EB020C0590E146084602F1804222
:100F1000013A0A9D04920893002F44D0C20742D59B
:100F2000079B002B42D0029B23B3012683466369B3
:100F3000A16805FB03F301F1100806FA08F8049E06
:100F4000226906EB030CA2F1040E4B4402EB8C0267
:100F5000D4F804C004310EEB830E52F8043F1B0298
:100F6000DCF8040010EA080FFAD172454CF8213081
:100F7000F3D15846019B0130834205F10105CBD1E5
:100F8000089B099901338B425FFA89F2B2D1DDE9FE
:100F90000C1001318842BE46DDF804B02DD011FBA3
:100FA0000BF3DAB29BE75346002BBCD1069B002B18
:100FB000E0DB63690599266903FB051106EB8101F6
:100FC00001268346A368039A03F11008D4F804E0CD
:100FD00006FA08F803F1040C51F8043D1B02DEF890
:100FE000040010EA080FFAD1013A4EF82C3013062B
:100FF000F2D5BEE701338342FCD10FB0BDE8F08FDC
:1010000010B5002304464068636008B102F008FF91
:101010000023C4E90233237010BD00BF2DE9F0475F
:10102000BDF8208071B3154662B31F4653B3B8F1C3
:10103000000F27D06FF0604302FB07F908FB09F9A6
:10104000994504460E4628BF4FF0FF300F4938BF80
:101050004FEA890003F0B4FA824698B131464FEA6C
:10106000890205F027F96068C4F804A008B102F00D
:10107000D7FE0123A5601846A781A4F80E8023702F
:10108000BDE8F0870020BDE8F08700BFDC0B011051
:1010900007EE901AF5EEC07AF1EE10FA7BD92DE941
:1010A000F04F2DED048B4768C3B0002F6DD0D0F802
:1010B0000880B8F1000F0DD0B0F80CB0BBF1000FF4
:1010C0005DD0C38901935BB9184643B0BDEC048B76
:1010D000BDE8F08F404643B0BDEC048BBDE8F08F17
:1010E0000C469FED2E9ADFED2E8AB6EE008A0DF1AA
:1010F00008090DF1070A0DF20716C9F1010505EB04
:101100000A0307EE903AF8EEE77A67EE897A21460D
:1011100017EE900A02F078FDF0EE487A07EE100A1A
:10112000E7EE287AFDEEE77A17EE903A83F30803AC
:101130000AF8013F5645E2D1019B03FB0BF008FB87
:1011400000F0B0B1043F07EB800057F8042FC2F362
:101150000723C2F3074119F8033019F80110D2B27E
:1011600019F802201B0243EA01431343B8423B60D3
:10117000EBD1012043B0BDEC048BBDE8F08F5846A5
:1011800043B0BDEC048BBDE8F08F384643B0BDECF6
:10119000048BBDE8F08F0120704700BF8180803B49
:1011A00000007F430000000051EA020301D101204A
:1011B00070474368002B54D02DE9F04F8946816871
:1011C000C3B069B1B0F80CB0BBF1000F45D0B0F8B6
:1011D0000EA0BAF1000F07D1504643B0BDE8F08F22
:1011E000084643B0BDE8F08FA2EB090800221EA517
:1011F000D5E9004547460126CDE900138DF80820C2
:10120000384602F047F82B46224601F0E7FF05F08A
:1012100087FB484480F3080002AB98550136B6F5C9
:10122000807F4744ECD10AFB0BF2DDE9001301FBA0
:1012300002F272B1181F00EB820250F8043F02ACB8
:10124000C3F30741615C9BB243EA014382420360FE
:10125000F3D1012043B0BDE8F08F584643B0BDE85C
:10126000F08F1846704700BF0000000000E06F409C
:1012700051EA020301D1012070474368002B55D089
:101280002DE9F04F89468168C3B069B1B0F80CB060
:10129000BBF1000F46D0B0F80EA0BAF1000F07D195
:1012A000504643B0BDE8F08F084643B0BDE8F08F2C
:1012B000A2EB090800221EA5D5E9004547460126F4
:1012C000CDE900138DF80820384601F0E3FF2B46E6
:1012D000224601F083FF05F023FB484480F3080019
:1012E00002AB98550136B6F5807F4744ECD10AFB36
:1012F0000BF2DDE9001301FB02F27AB1181F00EBDB
:10130000820250F8043F02ACC3F30721615C03F092
:10131000FF1343EA012382420360F2D1012043B06C
:10132000BDE8F08F584643B0BDE8F08F18467047CF
:101330000000000000E06F4051EA020301D10120EB
:1013400070474368002B53D02DE9F04F89468168E0
:10135000C3B069B1B0F80CB0BBF1000F44D0B0F825
:101360000EA0BAF1000F07D1504643B0BDE8F08F90
:10137000084643B0BDE8F08FA2EB090800221FA584
:10138000D5E9004547460126CDE900138DF8082030
:10139000384601F07FFF2B46224601F01FFF05F083
:1013A000BFFA484480F3080002AB98550136B6F501
:1013B000807F4744ECD10AFB0BFADDE9001301FB07
:1013C0000AF169B1181F0C4C00EB810150F8043F81
:1013D00002ADDAB2AA5C2340134381420360F5D127
:1013E000012043B0BDE8F08F584643B0BDE8F08F10
:1013F00018467047AFF3008000FFFF0000000000B8
:1014000000E06F40826803468A420BD9406850B1C1
:101410009A89B3F80EC001FB02F30CFB03F300EB57
:1014200083007047002070472DE9F0414568C0B047
:10143000002D00F08580866836B1878947B1C08964
:1014400050B940B0BDE8F081304640B0BDE8F08111
:10145000384640B0BDE8F08164290B466FF0630860
:10146000A8BF6423642AA8BF64224345B8BF43468B
:101470004245B8BF424607EE903ADFED335AB8EE28
:10148000E76A07EE902ADFED314AB8EEE77AC6EE5A
:10149000257A67EEA47AF8FE677AB7EE005A6C46B2
:1014A00087EE256AFDEEE77ADFED296A36EE056AFA
:1014B00017EE902A0DF1FF3C0DF1FF01C4F1010E72
:1014C00006E0FF2B3ADCDBB20CF8013F614518D097
:1014D0000EEB0C0307EE103AB8EEC77AF0EE667A20
:1014E00037EE667AE6EE077AF8FE677AFDEEE77A7F
:1014F00017EE903A9B18E4D500230CF8013F6145A4
:10150000E6D100FB07F306FB03F39BB1281F00EBBA
:10151000830550F8042FC2F30723C2F30741E35CAD
:10152000615CD2B2A25C1B0243EA01431343A842AE
:101530000360EED1012040B0BDE8F081FF23C3E796
:10154000284640B0BDE8F0810000C84200007F435B
:10155000000000434FF050402DE9F84F6549D0F8A6
:1015600000A0654A654B51F82A70BAF1000F0CBF14
:10157000904698464FB30026DFF884B1DFF8849197
:10158000F3080C3358F8234035460836CCB114F034
:101590000F0110D05BF82A2005F00703EA40E808A5
:1015A0009B00D20701FA03F300F18C0C03D4284608
:1015B00049F82C30B847240905F1010501D0B5429E
:1015C000E5D3202EDCD1BDE8F88F4D48F90801F1B4
:1015D0000C0358F823303A460837002B71D013F02B
:1015E0000F0508D050F82A40D440E40703D4454CF6
:1015F0008C3144F82150190963D011F00F010BD040
:1016000050F82A40551CEC40E60705D4EC083D4D47
:1016100009018C3445F82410190A52D011F00F0139
:101620000BD050F82A40951CEC40E40705D4EC0898
:10163000344D09028C3445F82410190B41D011F0B7
:101640000F0105D050F82A40D51CEC40E6073CD5E8
:10165000190C36D011F00F0106D0294C54F82A503D
:10166000141DE540ED0737D5190D2AD011F00F01F3
:1016700006D0234C54F82A50541DE540EE0732D5CD
:10168000190E1ED011F00F010CD01D4C54F82A5029
:10169000941DE540ED0705D41A4DE40809068C3485
:1016A00045F824101B0F02F107020AD050F82A1047
:1016B000D140C90705D41349D2081B078C3241F821
:1016C0002230202F82D1BDE8F88FEC080D4D0903A0
:1016D0008C3445F82410BBE70A4DE40809048C3427
:1016E00045F82410C0E7074DE40809058C3445F897
:1016F0002410C5E75C250020488202409082024009
:101700001C2600200080024010B44FF480740C4B63
:1017100053F8202003EB8003C00082F0400200F168
:10172000804003F5805C02F0C00200F5203003F534
:101730004053CCF8002041601C605DF8044B7047BA
:101740000480034010B4084CC90041EA820154F8F7
:10175000202004EB8003514003F5805301F00C017D
:101760005DF8044B19607047048003402DE9F04395
:101770004FF050491646DFF89C80D9F800201F46EC
:1017800058F8223004460D4683B053B3002F34D0AE
:101790004FF0504348F822701A681B491B4B002A2F
:1017A00018BF0B46E20804F00704A40005FA04F48D
:1017B000A1F5247102F18C0041F8204003EB820373
:1017C0004EB10121152003F500531C6003B0BDE8A4
:1017D000F04300F033B903F540531C6003B0BDE89B
:1017E000F083002FD9D048F8227015201A460849F6
:1017F00000F06AF9D9F80020CFE7152004490192DA
:1018000000F056FA019AC3E79082024048820240F3
:10181000551500105C25002030B44FF0000343EC58
:10182000440043EC400005254FF480740B4BC2008C
:1018300053F8201003EB800081F0400102F1804357
:1018400003F5203301F0C00200F5805100F540504F
:101850000A605D60046030BC704700BF04800340D4
:101860000FB400B583B0049C074802F05FFC3CB1A4
:1018700005A92046019102F0DBFA044802F056FC6B
:10188000012002F0EDFA00BFE0690010F0690010DD
:10189000EFF3108072B6064BD3E8CF1F0122002968
:1018A000FAD1C3E8412F0029F6D1BFF35F8F70470B
:1018B0003B2500200023034AC2E88F3F80F31088B5
:1018C000704700BF3B25002070B58646EFF31085BA
:1018D00072B6124CD4E8CF6F0120002EFAD1C4E8C2
:1018E000460F002EF6D1BFF35F8F4FF0010CC808F2
:1018F00001F007030CFA03F31EF800C01CEA03060C
:1019000008D14CEA030C0EF800C0C4E88F6F85F3D1
:10191000108870BD1046FFF7A3FF00BF3B250020D5
:10192000F8B5EFF3108572B6234CD4E8CF7F0126CB
:10193000002FFAD1C4E8476F002FF6D1BFF35F8FB5
:101940009A4227D80126D70810F807E002F0070CC2
:1019500006FA0CFC1EEA0C0F00EBD2070DD125E0B5
:101960004FEAD20E10F80EE002F0070C06FA0CFC5B
:101970001EEA0C0F00EBD20718D001329342EFD2CF
:101980004FF0FF300023C4E88F3F85F31088984262
:1019900007DBF8BD0023C4E88F3F85F310884FF0C4
:1019A000FF300029F5D00698FFF75AFF4EEA0C0EDB
:1019B000104687F800E0E5E73B250020044A107850
:1019C000431CDBB2182B28BF10231370704700BFD5
:1019D0009C1A00204FF0E022936843F0005393607C
:1019E000704700BF0021044B03F12002C3E88F1FA2
:1019F00001339342FAD17047302500204FF0E023A5
:101A00004FF08032C3F80024C3F80424C3F808243C
:101A1000C3F80C24C3F81024C3F81424C3F8182402
:101A2000C3F81C24C3F82024C3F82424C3F82824B2
:101A3000C3F82C24C3F8302462B67047012300F0A9
:101A40001F029340400941B1800000F1604000F561
:101A50006140C0F8803103607047024A203042F88C
:101A60002030704700E100E0F8B50D46EFF3108735
:101A700072B6124ED6E8CF2F0123002AFAD1C6E85B
:101A8000423F002AF6D1BFF35F8F0D4B00F11004E7
:101A90009B680C4A53F82430934203D0994201D0FA
:101AA00001F040FA064B9B6843F82450BFF35F8F68
:101AB0000023C6E88F3F87F31088F8BD3925002042
:101AC00000ED00E0110100102DE9F04F81468B463A
:101AD000164683B0EFF3108372B6DFF8D0A10093FF
:101AE000DAE8CF1F01230029FAD1CAE8413F0029D3
:101AF000F6D1BFF35F8F664B93F90040002CC0F224
:101B0000A080644D04EB440705EB870898F80610A5
:101B100009F110091970604BBF009B6853F8290048
:101B20006300411B2F292FD95C49884240F0A480D3
:101B30001C445B4B02372F44043BDB1BC3F34A03BB
:101B40006FEAC3434FF421416FEAD34325F82410D1
:101B500005EB840463804BF60153A380FF2348F018
:101B60000100E671C4F808B0A3714B4B9B6843F8C1
:101B70002900BFF35F8F0023CAE88F3F009B83F3E8
:101B8000108803B0BDE8F08F20F0010E9EF807101A
:101B9000B1422ED84FF42143EB53414BB91C294499
:101BA000043B04375B1A2F44AEF104013D4CC91BC2
:101BB000C1F34A012143A8F80410C3F34A033A4988
:101BC0002343A8F802304AF6AA2073465B1B5B4108
:101BD0005843000D88F8076088F80600C8F808B078
:101BE00048F00100CEF80010BFE7D179B1422ED9FC
:101BF00096469EF906C00CEB4C02BCF1000F05EBBB
:101C00008202F2DA4BF601510EF10402A8F1040748
:101C1000BF1AC7F34A076FEAC7476FEAD7478EF87C
:101C2000064003EB0408204C05EB8803AEF8047073
:101C300045F82840998083F806C0DE71C3F808B0E3
:101C400093E701F06FF9124B93F9004059E77246A0
:101C500032F8041F490514D44915023102EB410141
:101C600001916FF00701C91B019F491B3944C1F362
:101C70004A0141F46041C9E7019301F053F9019B26
:101C800056E701F5FF1101F5FF511F31E4E700BFF1
:101C900033260020A01A002000ED00E01101001002
:101CA000D01A002000E0FFFF0148804739250020BE
:101CB0002DE9F04F83B0EFF3108A72B6744ED6E878
:101CC000CF2F0123002AFAD1C6E8423F002AF6D1DD
:101CD000BFF35F8F6F4B00F110089B686E4A53F89B
:101CE000285095423FD08D420C464AD06B4FEB1B9B
:101CF0002F2B38D801214FEA50194FEA890909F1F1
:101D0000604909F5614900F01F0301FA03F0D9F8B1
:101D10000030C9F8800000EA030BBFF35F8FEFF3D8
:101D20000581C9B279B3884577D125F0010EDEF877
:101D300008C0644505D17CE0D3F808C0644532D0C2
:101D40009E469EF9062002EB4203002A07EB83031E
:101D5000F2DA644500F08180BBF1000F20D0C9F8B1
:101D60008001C9F800004B4B9B6843F82850BFF333
:101D70005F8F0023C6E88F3F8AF3108803B0BDE869
:101D8000F08F1546EFE725F0010EDEF808C0644538
:101D9000D7D19EF906407346002C08DA154666E056
:101DA000C9F88000DFE793F90640002C56DB04EB0E
:101DB000440C07EB8C0CDCF8082061009A609CF85E
:101DC0000720DA719CF90620002A9A715DDBBCF8C5
:101DD0000420520504D502F5FF1202F5FF521F320E
:101DE000521502F1020C4FF0040E0C2212FB04E219
:101DF00002EB4C026FF0070C3A44ACEB030C62446C
:101E0000C2F34A0242F460429A80254B21441A7878
:101E100007EB81011C708A719EE7CDE9000101F09A
:101E200081F8DDE9000125F0010EDEF808C0644507
:101E300087D19EF906407346002CB8DA194A1A4C2D
:101E4000D21A083AC2F30A316FEA01516FEA11510E
:101E500044EA5202DA8099807EE773460029EDD188
:101E6000FF228EF806204BF60152AEF804200C4CEF
:101E70004AF6AA2294F800C01946C91B49414A43B0
:101E8000120D83F806C0227066E74BF60152BBE7DD
:101E90003925002000ED00E011010010A01A0020FB
:101EA00033260020DA1A002000F8FFFFF0B5EFF328
:101EB0000585EDB2EFF3108C72B62649D1E8CF2F2D
:101EC0000123002AFAD1C1E8423F002AF6D1BFF32C
:101ED0005F8F214E40F0010EB4684AF6AA2354F8F1
:101EE00025701E4A0446A41A644163431B0D7745BE
:101EF0005BB21BD092F906409C421CD092F9124072
:101F00009C4223D092F91E409C4221D092F92A4053
:101F10009C4208BF03240FD0114A00241578137087
:101F20008571C1E88F4F8CF31088F0BDB2680D4CFD
:101F300042F82540F0E7002404EB440402EB84025D
:101F4000FF2494714BF601549480E5E70124F3E7F4
:101F50000224F1E73925002000ED00E0A01A00205E
:101F60003326002011010010014B0B440360704721
:101F70003025002070B5104C104DAC420ED2FF261B
:101F8000236863B1FFF71AFD01462046FFF7ECFF17
:101F9000A680BFF35F8F0834AC42F1D370BDFFF76A
:101FA0000DFD01462046FFF7DFFF2671BFF35F8F6F
:101FB0000834AC42E4D370BD5C20002064200020D3
:101FC0000D4B1A68EFF3108172B6D2E8CFCF012023
:101FD000BCF1000FF9D1C2E84C0FBCF1000FF4D1F5
:101FE000BFF35F8F00221B68C3E88F2F81F3108837
:101FF00040BF002000217047242600200000000080
:102000002DE9F04F2DED028B85B0EFF30583DBB2A8
:10201000103B9A0818BF01224FF0010103F00300A2
:1020200018BFAF4DAF4B08BFAF4D00EB820253F866
:10203000226001FA00FB05F541539FEDA78B01904B
:10204000C3F804B02EE0B388180440F19280B3794D
:10205000002B40F0DC80B6F908100029C0F21D8189
:10206000736901EB410103EBC103D3E90247B7F107
:10207000FF3F08BFB4F1FF3F0DD0019B05EB83018B
:10208000AB6A0A69D21AE31A934203D32B6A13EAA2
:102090000B0F00D10C61284600F0DEFBA042B941D5
:1020A000C0F2FB80B6F90830C5F83CB0002B0093B5
:1020B000C9DBD6F8149003EB430A284609EBCA079C
:1020C000D7E9024800F0C8FBA04271EB0801BADB77
:1020D000B8F1000FC0F2C380D7E90431834A9342BC
:1020E00000F0ED807A88B6F9080092B242EA00402A
:1020F000984702460B4652EA030100F0B080002BDD
:1021000080F2D180B4EB020E68EB030839F93A3063
:10211000C7E902E8002B96DB716903EB430201EB90
:10212000C202D2E90270BE4578EB000C4FEA4302CE
:1021300089DBB4462CF8083F0BE031F93230A44675
:10214000002B0DDB03EB430001EBC0005A00D0E98C
:102150000270BE451A4478EB000001EBC204ECDAD1
:1021600029F83A30009BACF80030B38818043FF5EA
:102170006EAF3369EFF3108272B6D3E8CF0F01214F
:102180000028FAD1C3E8401F0028F6D1BFF35F8FC3
:102190004FF6FF74B0880023316900B2B480C1E803
:1021A0008F3F82F310889842FFF651AF0746A94649
:1021B000746906F1080807EB470E04EBCE03D3E978
:1021C0000250B6F90830C446002B13DBB246009724
:1021D00004E034F936309446002B09DB03EB430668
:1021E00004EBC602D2E90271BD4270EB0101F0DAE4
:1021F0005646009FACF8007034F93E7024F83E302B
:10220000002FD8DAB3794D46002B3FF424AF0023DA
:10221000B371B6F9083006F10808591C3DD01946CB
:10222000776903E080465A1C3FF417AF03EB430283
:1022300007EBC200B0F802C01C461CF4004F9E46DB
:1022400037F93230EED08C4280ED028B05D0A8F801
:102250000030318927F8321034817146E3E739F8CC
:102260003A3033813369EFF3108272B6D3E8CF0F7F
:1022700001210028FAD1C3E8401F0028F6D1BFF39E
:102280005F8F7388316929F83A30009B738000238F
:10229000C1E88F3F82F31088D5E640BF05B0BDECA2
:1022A000028BBDE8F08F2846CDE9022300F0D4FA76
:1022B000029A039B10EB020E43EB010826E7084647
:1022C0000B69029198470028C9D00299D1E90023EF
:1022D00011E700BFAFF30080FFFFFFFFFFFFFFFF2D
:1022E00000800B40FC25002000000B400120001066
:1022F0002DE9F84F364C25692DB1BDE8F84F0A217C
:102300003448FFF731BEDFF8E4800321404600F097
:1023100091FA0326C4F80C80FFF750FB4FF0504CA5
:102320002D4B267003442361DCF800300F216370CD
:10233000636961801D834FF00405A3F878504FF066
:102340000505A3F890504FF00605A3F8A8504FF0EC
:1023500007050E214FF6FF7208274FF00A0EA3F86B
:10236000C0504FF001094FF00C0C4FF0020B4FF032
:10237000090A0D204FF00B05A3F868111749A28038
:10238000A3F808E1A160A3F848B0A3F8F0A0A3F86F
:102390002051A3F838C1A3F85001A3F83090A3F856
:1023A0006060A3F8D8701A800D4B3046C8F82070D2
:1023B0000C49DC60FFF758FB49463046FFF73EFB0F
:1023C000094B0A211F640348BDE8F84FFFF7CCBD55
:1023D000E81A00202426002030250020FFFF1000EE
:1023E000FC2500200120001000200B4000000B40C5
:1023F00000487047E81A00200146F0B50069EFF385
:10240000108772B6D0E8CF5F0124002DFAD1C0E862
:10241000454F002DF6D1BFF35F8FB1F902E04C6953
:102420000EEB4E0CBEF1000F4FEACC0504EBCC0CCA
:102430003DDB605B002648800869C0E88F6F87F34A
:102440001088BCF80200CCE902230130C0F30E0072
:10245000012838BF0120059BACF80200CCF81030F1
:10246000069B40EA0E40CCF814300B69EFF3108263
:1024700072B6D3E8CFCF0127BCF1000FF9D1C3E882
:102480004C7FBCF1000FF4D1BFF35F8F8B88635397
:10249000A1F804E00B69C3E88F6F82F31088012272
:1024A000CB68097803F501538A405A60F0BD0023D8
:1024B0000A69C2E88F3F87F310884FF0FF30F0BD04
:1024C00003464089B0EB214F37DD58690A1402EB0F
:1024D000420210B500EBC2001C69EFF3108C72B61B
:1024E000D4E8CFEF0122BEF1000FF9D1C4E84E2F9E
:1024F000BEF1000FF4D1BFF35F8F428889B292B270
:102500008A4207D000221B69C3E88F2F8CF3108802
:10251000002010BD42F400424280012100221869CF
:102520009971C0E88F2F8CF310881C78DA68084600
:1025300002F50153A140596010BD0020704700BF53
:102540002DE9F041861F41F1FF35B04271EB0503E3
:1025500038BF002682B038BF354604460F4600F02B
:1025600083F9301A65EB0103012873F1000306DAE1
:102570002046394602B0BDE8F04100F0B1B900F0A4
:1025800073F9864265EB010100290ADB0021174B34
:102590003246009316482B460191FFF72DFF002885
:1025A000E6DB4FF0000C1348134A436A9D4204D8FF
:1025B000816AB142DCD29D42DAD11368EFF3108117
:1025C00072B6D3E8CF8F5FF0010EB8F1000FF8D1EB
:1025D000C3E848EFB8F1000FF3D1BFF35F8F136882
:1025E000C3E88FCF81F3108820BFDEE7C11F001042
:1025F000E81A002000000B402426002038B50446CD
:102600000D4600F031F94FF0FF326FF00043201813
:1026100045EB0101824273EB010438BF1946BDE866
:10262000384038BF1046FFF78BBF00BF10B50446D7
:1026300000F01AF94FF47A734FF0FF3C6FF000424C
:10264000E4FB0301BDE81040844572EB01033CBF8D
:1026500060461146FFF774BF2DE9F04306460D466C
:1026600083B0EFF30584E4B23CB1274B586AA8422B
:102670001CD2002003B0BDE8F083244FD7F80C90A3
:1026800097F80080484600F0E7F808F1040859F888
:1026900028301B1A301A65EB0101984271F10001D4
:1026A00011DB20BF184B586AA842E2D39B6AB342A1
:1026B00003D3012003B0BDE8F083401B18BF012005
:1026C00003B0BDE8F08300F0CFF8864265EB01016E
:1026D0000029CADB0E4B3846CDE9003432462B4682
:1026E000FFF78AFE011EC0DD074B5A6AAA4208D3D3
:1026F0009B6AB34203D30548FFF7E2FEB5E7AA425F
:10270000F9D120BFF7E700BF00000B40E81A002016
:10271000C11F00102DE9F0410446DDE9071552EA1A
:10272000030070D0002B16461F4671DB0698C5E9E2
:1027300000232861AC60696100F096F84FF0FF3229
:102740006FF00043801947EB0107824273EB0701EA
:102750003CBF1F4610462369EFF3108872B6D3E8DA
:10276000CF1F01220029FAD1C3E8412F0029F6D159
:10277000BFF35F8FB4F90260616906EB4603002E78
:102780004FEAC30C01EBC30346DB31F80C204FF0DA
:10279000000E62802269C2E88FEF88F310885A88A1
:1027A000C3E902070132C2F30E02012A38BF012237
:1027B0001F485A805D61186142EA06422369EFF3BF
:1027C000108072B6D3E8CF8F0127B8F1000FF9D18E
:1027D000C3E8487FB8F1000FF4D1BFF35F8FA3883F
:1027E00021F80C30A6802369C3E88FEF80F31088AE
:1027F00001202178E36800FA01F103F501535960E3
:10280000EA60BDE8F0810126002732463B468DE7AD
:10281000564263EB430789E700202369C3E88F0F23
:1028200088F310884FF0FF32EA60BDE8F08100BF06
:102830000120001010B4054B054C064AA04214BFFD
:102840001846581C5DF8044BFFF73EB86C25002075
:1028500000800B40F46900100346416A0A46986AFA
:10286000596A8A42FAD17047034B596A0A46986AF4
:10287000596A9142FAD1704700000B4010B4174AD0
:10288000536A9C46946A536A6345FAD100195941C8
:102890004FF0000228BF01220346CAB10F4B596A0C
:1028A0004B1C08BF0B4608D04FF0FF310B460B48BE
:1028B000426A8A42FCD38A4207D1084A02E0506A3F
:1028C000884202D1906A9842F9D35DF8044B704770
:1028D000024A526A9142EAD8EDE700BF00000B407D
:1028E000074A536A9942FCD8994207D1044B02E047
:1028F0005A6A914202D19A6A8242F9D3704700BF64
:1029000000000B40F8B5054606200E4600F0E4F83E
:10291000002842D0354A3648954214BF4FF08062B5
:102920004FF00062334B344902601A608C6832EA1F
:102930000404FBD12D4B4FF48071EB1AB3FA83F3EF
:102940002E4A5B09062022F8131000F0C5F8C300D8
:10295000B3FBF6F30133DA0920D140260121696285
:10296000AA622F6BFB0722D42B46002253F82C1FA0
:10297000062003F5805422602F6300F0ADF840F28A
:10298000013103228000B0FBF6F0EB6A83F07003A4
:1029900003F07E0323602963AA64F8BD4FF6FE713D
:1029A0008A421BD922464FF6FF71154ED7E740F2F7
:1029B000013205F540531A636B6AAC6A062004EBDA
:1029C000831400F089F80F4BA402A3FB0023DB0A59
:1029D0000021B4FBF3F0FFF751FFC5E7C3F3450354
:1029E000114603EB82161A46B9E700BF0080074084
:1029F0000020024000300240000002402826002053
:102A0000C0FF3F00757B2B8F00EB400C4FEA8C0C16
:102A10000CF1804C0CF5803CF0B51646DCF8042037
:102A2000051FB2F5803F38BF4FF48032EDB238BF9A
:102A3000CCF80420012D2AD94FF40067254C0CF561
:102A40004052176054F82020B2B9DCF80020012D64
:102A500082EA461202F0E0020CF5805632602AD972
:102A60004FF4006144F820304FF480330CF50052ED
:102A70001160CCF80430F0BD6769B7FBF2FE0EF1CF
:102A8000010E0EEB4E0EBEF1030EFCD2DDE7012966
:102A9000D2D103240CF540521460DCF80820D20790
:102AA000FBD5DCF800200B4C82EA461202F0E00273
:102AB0000CF5805632600122DCF800504D4005F0E4
:102AC0000305356002FA01F1DCF808200A42FBD068
:102AD000C6E700BF74250020014B53F82000704763
:102AE00074250020584B2DE9F0431C6C1746B4F5B3
:102AF000803F38BF4FF480320E464FF003018046CE
:102B000038BF1A64514A504B83B0D1635C6CE507FF
:102B1000FCD5DA6B4E4982F0200202F0E002CA6373
:102B2000DB6B494D83F0010303F00303CB636C6C53
:102B3000A407FCD54FF400624FF48039454B464C56
:102B4000DA63464B4246636101213346C5F8409043
:102B50004348009700F056F94FF400616B6B07FB98
:102B600006F64B4538BFC5F83490384B2269B8FBA0
:102B7000F6F619633AB16369B3FBF2F3013303EB81
:102B80004303033BFDD2304B31491A6B02F0E002A4
:102B90000A631A6B82F0020202F003020A63996B65
:102BA0004807FCD54FF400654FF4803229490D6386
:102BB0002C495A632161196C91424FF0030138BFCF
:102BC0001A64224B204AD963536CD907FCD5D36BC6
:102BD0001F4D03F0E003EB63D36B1B4983F001034C
:102BE00003F00303EB634B6C9B07FCD54FF480337E
:102BF0004FF40065174A6661D5630B64CA6C9A424C
:102C000038BFCB644FF40061104BA26999643AB1AC
:102C10006369B3FBF2F3013303EB4303033BFDD2E0
:102C20004FF400604FF48031074A094D936C83F0F4
:102C3000400303F0E003AB64064B084DA5619864C4
:102C4000D16403B0BDE8F0830000014000300140D2
:102C5000001001400020014074250020006CDC02BF
:102C600000000540001BB7002DE9F04F4FF4A0789D
:102C7000994685B0CDE902125F4CDFF884A1544536
:102C80000AD908F1FF38A4F53B54B8F10F0FA4F1AD
:102C90002004F4D1002069E0072304F537220194D1
:102CA00003FB03F402F5D872B2FBF4FE70454FF05B
:102CB000010C4FF002074FF003064FF004054FF0F0
:102CC00005013FD0B3F1010E00F094800EFB03F438
:102CD000B2FBF4FB58454CD019B301FB03F4B2FB33
:102CE000F4FB58454FD0E5B105FB03F4B2FBF4FB10
:102CF000584553D0AEB106FB03F4B2FBF4FB584584
:102D000057D077B107FB03F4B2FBF4FB58455BD017
:102D1000BCF1000F05D00CFB03F4B2FBF4FB8345C0
:102D20005DD0734603FB03F4B2FBF4FE704501F182
:102D3000FF3105F1FF3506F1FF3607F1FF370CF1E2
:102D4000FF3CBFD104FB1024002CBBD19E464A4659
:102D5000DDF808B0DDF80C900120284901FB08F1EE
:102D6000CBF80010C9F80030C2F800E005B0BDE8AB
:102D7000F08F04FB1024002CAED14A46DDF808B0D9
:102D8000DDF80C90E8E704FB1024002CABD14A4698
:102D90008E46DDF808B0DDF80C90DDE704FB10246A
:102DA000002CA7D14A46AE46DDF808B0DDF80C90FD
:102DB000D2E704FB1024002CA3D14A46B646DDF826
:102DC00008B0DDF80C90C7E704FB1024002C9FD15D
:102DD0004A46BE46DDF808B0DDF80C90BCE704FBBF
:102DE0001024002C9DD14A46E646DDF808B0DDF8F7
:102DF0000C90B1E7019C44E750262F00001BB70060
:102E000050F80C0070B4039D04682D0345EA034597
:102E10001B4B002CB3FBF1F3B2FBF3F61FDB194A9B
:102E2000194B904214BF4FF480424FF40042174CAC
:102E30001A6003F580531A60A36832EA0303FBD1DA
:102E4000212200F540530433016086601A60026855
:102E5000002AFCDA0822C5601A6070BC704703685B
:102E600003F03F038B42DAD18368C3F30B03B34211
:102E7000D5D1C36803F4EE23AB42D0D1EDE700BF58
:102E8000001BB70000800540002002400000024007
:102E9000012300EB4000800000F1804000F5841029
:102EA00041600360704700BF0023DB8A002242E8D4
:102EB00000F2520201D4102118470421184700BF24
:102EC000034AD2F82838002BFBD0BFF35F8F70473E
:102ED00000000E400021044B044ABFF35F8F43F80B
:102EE000041B9342F9D170470C080E402C080E4089
:102EF00010B44FF48D704FF42A64064A064B07490C
:102F00001460D06019605368002BFCDA5DF8044B44
:102F1000704700BF0080044000A0044000B0FA00E9
:102F2000704700BF08B50148FEF79AFC186A001008
:102F300038B5054C054DAC4204D254F8043B9847D3
:102F4000AC42FAD338BD00BF486900108869001050
:102F500010B40748074C084B084A094904601A6036
:102F60008B6832EA0303FBD15DF8044B704700BF66
:102F7000002002407F3BEFEF00300240F6FFF303FA
:102F800000000240044BDB6CB3F5004F03D14FF45B
:102F90008022024BDA64704700001150002011506B
:102FA0004FF0E022044BD2F8881D0B43C2F8883D55
:102FB00010EE3004704700BF030330006FF0604133
:102FC000044B054A19609368DB4333F06043FAD140
:102FD000704700BF003002400000024010B545F2CB
:102FE0005320FFF761FFBDE8104003460420184757
:102FF00010B545F25320FFF757FFBDE810400346D8
:1030000001201847FEF7EEBC70B51449144C154D5D
:10301000641AA610442E324628BF44222846920045
:1030200003F048F9B4F5867F13D80F4AC6F144017E
:1030300012D02B19480803EBC000C3E90022083363
:103040008342FAD1CB0704D521F00103334445F87C
:103050002320064B9D6070BD4323F8E7000000105D
:1030600010010010000000201101001000ED00E030
:10307000002370B52B4C82B0C4F88430FFF738FFC2
:103080000122294BDA63636C012BFCD10321264A10
:10309000244B11639C6B012CFCD102260525214693
:1030A0000523224A22480096FFF7ACFE21462B4614
:1030B000204A21480095FFF7A5FE00220420314652
:1030C0001E4BFFF7A1FC2146284600221C4BFFF7B0
:1030D0009BFC0022082011461A4BFFF795FC0022AA
:1030E00009201146174BFFF78FFC002206201146DE
:1030F000134BFFF789FC0022114B07201146FFF705
:1031000083FC0420FFF7E8FC00240F4BA3FB0035F1
:10311000AD0CE0B229460134FFF7BAFE062CF8D117
:1031200002B070BD0000014000300140002F68591E
:1031300000000540008C864700800540001BB7005A
:1031400080D1F008006CDC0283DE1B4386B003B440
:1031500051FC0804CDE9020151FC0904CDE9040148
:1031600051EC0A04CDE9060103BCF047BDE800506C
:103170004EEC00C4BDE800504EEC01C4BDE8005068
:103180004EEC02C400BD000000B5FFF7DFFF02E017
:1031900010FE30F4F8D410B541EC100443EC1124C7
:1031A00051EC040453EC0524A0FB024C5FF0000E2C
:1031B000E0FB03CEE1FB02CE4CEC20440024E1FB1B
:1031C00003E444EC30E480EE200451EC5004BDE80C
:1031D0001040704700B5FFF7B9FF02E010FE30F471
:1031E000F8D441EC100443EC112451EC2104A0FB71
:1031F00001126FEA820252FB100052FB12F252FBE4
:103200001000A0EBD07C53EC04245CFB13F153ECD6
:103210001524A1FB022001FB030053EC4424A2EB84
:10322000000050FB1CF24FEA111312EB017043EB4C
:10323000E27140EA515020EA915020F0070053EC2F
:103240007524A0FB023C53EC752400FB03CC01FB6E
:1032500002CC53EC0424ACEB824C40EA5C70A0F14D
:10326000010041EC400480EE200451EC70047047F2
:1032700000B5FFF76BFF02E010FE30F4F8D441EC2C
:10328000100480EE220410EEB204704700B5FFF780
:103290005DFF02E010FE30F4F8D440EC700400EE64
:1032A000010410EE210480EE200451EC300470473C
:1032B00000B5FFF74BFF02E010FE30F4F8D441EC0C
:1032C000800400EE010410EE010480EE400410EED4
:1032D00013047047404261EB410140F2F334B1FA0C
:1032E00081F20C2A0CD2153211FA02F3C2F120023B
:1032F000D04021FA02F12244584141EB025170477B
:1033000069B1C2F12B0230FA02F3C2F120029140FE
:1033100090401943A4EB020201EB025170470100F7
:103320004FF00000A4F12004D9D17047012767F3C2
:103330001F5117FA03F817D0A0FB080701FB08710B
:10334000A1FB06785FEAD8469219A6FB047806FB33
:103350000588090351EA1051D7EB003061EB0801F1
:10336000A94238BF70470BE00C33012717FA03F866
:103370000FD0A0FB080701FB0871A94238BF7047B6
:1033800008BFA04238BF7047001B61EB0501013246
:10339000704703F1200311FA03F6D3F12003D8405C
:1033A000D9403043704700000000000000000000DA
:1033B0000453B1086018850FC8E5F22A6E07271E6E
:1033C0000D12B2210412572F12557CBCDA30723F15
:1033D00017A717A55531994E9D0DBF0AEEE0AB5FBB
:1033E000E3EF6D9C7636AD6F697BCCE33D62BD7ECD
:1033F000F0810682F3FA428F37D5B78A5313C89EFD
:103400007FABB320491570AF000000000000000042
:10341000025E88155580FF00907806B1A602FE0175
:10342000DC4E21F0EB88FB027A7C801F1615F80336
:103430003C5DA9D110A9F304AA466CF5C146EE057E
:10344000FF65E4EB09F0E70613C00C9EC3A6E00796
:10345000E1BFEC91C46CD808D5AF5EFFDC43CF0967
:10346000466A72E4D72DC50A237E6E197B2CBA0BEF
:10347000BFF571648741AE0C61DFB88CB86EA10DE9
:1034800009A9856DC5B5930E3153B1086018850F34
:103490003071E498359875105915550580FF0F0067
:1034A00009C3EB8F80FB2F00B1910E9A82F34F007E
:1034B0001FE7FD2287E76F00C3A09A298FD78F00EF
:1034C0004F4366AC9BC3AF00412A83A9ADABCF008D
:1034D0004FB7B41EC68FEF00B6815F09E66F0F01CC
:1034E000678589660E4C2F011A52DA3240244F014B
:1034F000483A9B6A7CF86E01FF81B709C4C88E0107
:103500009C8DBC0B1895AE017010DA6B795DCE0105
:103510003A3BE224E921EE0138739533427FECA077
:103520003114FAF5BD8689916B02FAE6E0F29183D7
:10353000E682120713A85177212621686AB2736ABE
:103540009D0DBF0AEEE0AB5F19B4E0B71CB66A543C
:103550009596E53DEF07A548D1CBE555DC0E4E3CF1
:10356000CE68ADE839B5A432CB3CFA96D9569A2844
:10357000C9B21CA1F9FCAE21864B6BE58AD2F016CC
:103580000453B1086018850F02C00C9EC3A6E00763
:103590000000000000000000AC79CFD1F71772B135
:1035A000293BAAB84FEAC12040F00040490043F14E
:1035B000200340F20001C3F6F071C3F10B0320FABF
:1035C00003F038BF7047404261F1000170475FEA85
:1035D000D17CC1F30A53A3F2FF330C2B62DA13F14F
:1035E000200FDFDD2DE9F0413C4C70CC4FF00002A4
:1035F000FFF79CFE1CF0010F04D06FEA0202201AB4
:1036000065EB010102F2FE3C40F2FE739C455CD288
:103610000A0F334B03EBC2030CCB02F03F0545F01E
:103620004005801A99410A0E2E4B03EBC20318CBBA
:1036300002F580725543C01AA1414A0D2A4B03EB93
:10364000C20318CB124402F5805205FB0255C01A82
:10365000A1418A0252EA905242F1000282FB0234F6
:103660005B0D53EAC423C01841EB545184FB023470
:103670004FF0553383FB043454FB11F304EB9304F4
:1036800010EB440241EBE473E900A1FB0240C1FBF3
:103690000301400A50EBC1504FEA512151EB0C514C
:1036A000BDE8F081B3F5806F07D150EA01320CBF5D
:1036B00021EAE17141F400217047002000211CF053
:1036C000010F08BFC7F6F07170474FF000004FF0D0
:1036D0000001A8BFC7F6F071BDE8F0819835001071
:1036E000A8330010083400109834001040F2000194
:1036F000CFF6F0710020704750EA013218BF41F454
:10370000002170477FEAA65540F019814FF480549C
:1037100020E18CEA11331B0640F0EE80BCF1000F73
:1037200067D1C90451EA5031C004B1FA81F4202CA8
:103730004BD20125A540A0FB052301FB0533A0FBCF
:1037400003C5A1FB02C6E1FB6356B2EB152263F190
:103750000003B2EB066273EB1623A0FB06C7A1FBC6
:1037600005C8E1FB66784FF05535A7FB05C65FF04D
:10377000000CE8FB056C16EB0C064CF1000C12EB90
:10378000963243F1000312EB8C4243EB9C3358FB1F
:1037900011F55FF0333755FB11F656FB17F8A5EB23
:1037A000581756FB11F5C2F6802656FB15F507EBA8
:1037B0001537B2EB472063EBD751C4F58064A4F111
:1037C0001504FFF78CFDBDE8F081B0FA80F410FA23
:1037D00004F1A0FB01234FF00000B0EB132061F1D6
:1037E0000001C4F58064A4F13504FFF778FDBDE85D
:1037F000F081890451EA90318004404261EB41013B
:10380000B1FA81F4202C4ED2013C0125A540A0FB49
:10381000052301FB0533A0FB03C5A1FB02C6E1FBA9
:10382000635612EB152243F1000312EB066253EBD1
:103830001623A0FB06C7A1FB05C8E1FB66784FF085
:103840005535A7FB05C65FF0000CE8FB056C16EBD1
:103850000C064CF1000C12EB963243F1000312EB14
:103860008C4243EB9C3358FB11F55FF0333755FB2B
:1038700011F656FB17F805EB581756FB11F5C2F673
:10388000802656FB15F507EB153712EB472043EB67
:10389000D751C4F58064A4F11504FFF720FD41F071
:1038A0000041BDE8F081B0FA80F410FA04F1A0FB09
:1038B00001234FEA1320C4F58064A4F13504FFF717
:1038C0000EFD91F00041BDE8F0815FEA410CBFF4CC
:1038D0000DAF5FEA5C5C3FF409AFACF2FF3CBCF5B6
:1038E000806F3FF409AF012262F31F512DE9F041CF
:1038F000BCEBEC7F3FF40DAF0C0C4E4D05EBC4055B
:1039000095E80C0002F03F0505F14005A5FB000617
:1039100005FB01616FEAE14404F01F04464D05EB2D
:10392000C40560CD521943EB060304F58074A4FB73
:10393000000604FB01667FEA26643FF4E3AE3F4DD8
:1039400005EBC40522CD521843EB050341F20105F6
:1039500005EB44046404A4FB0050C4EBC401E4FB85
:10396000060180EAE17481EAE175A5FB0567A4FB25
:1039700005487F084FEA360616EB080647F10007B0
:103980008C0254EA905444F10004801B61EB07015F
:1039900054FB14F555FB14F655FB15F74FF0553451
:1039A00056FB14F6B6EB173610EB860041EBA6710A
:1039B000101A63EB0101224A24CA1CF1010C0BDD31
:1039C000A2FB0C230024E5FB0C34121A8B4164F19A
:1039D00000045FF080410CE0DCF1000CA2FB0C2342
:1039E0000024E5FB0C3482184B4144F100045FF0E5
:1039F00040414CB91C0013000022B1F100711CB908
:103A00001C000023B1F10071B4FA84F5A5F11D0684
:103A1000A1EB0651AC4013FA05F0C5F12005EB40CF
:103A20001C43EA401043C00A50EB445041EBD42100
:103A3000BDE8F0819834001008340010983400106C
:103A4000983500102DE9F04101292DED028B08EE8B
:103A5000100A50D001EBD1756D10012D0C463CD0F1
:103A60000E460029B8BFCE1CB610012E4ED00F4610
:103A70000029B8BFCF1DFF10012F44D08846002970
:103A8000B8BF01F10F084FEA2818B8F1010F40D074
:103A9000A1F120031F2B3FD90021FFF7D3FF07EE31
:103AA000900A67EEA77A18F0010F67EEA77A01D0A7
:103AB00067EE887AF80767EEA77A01D567EE887A0D
:103AC000F10767EEA77A01D567EE887AEA0767EE15
:103AD000A77A04D567EE887A01E0F0EE487AE3072A
:103AE00067EEA77A01D567EE887ABDEC028B17EEF8
:103AF000900ABDE8F081F0EE487ABDEC028B17EE3B
:103B0000900ABDE8F081F0EE487AD9E7F0EE487A05
:103B1000DCE7F0EE487ACDE7F0EE487AC3E700BF85
:103B2000021E38B50C4618DAC1F3C7537F3B08466E
:103B300010D4D3F117030DD44FF0010C0CFA03FC91
:103B40000CF1FF3C1CEA010F04D1172B24D0D84004
:103B5000C30721D402F10042104607EE904AFDEE61
:103B6000E77A12F0FF4317EE901A1DD0B3F1FF4F22
:103B70001AD0C2F31603BBB9D20D7F3A01F3080184
:103B800001FB02F303F17F02002A37DDFE2A37DC56
:103B9000DB0503F17E5038BD214602F10040FFF7FE
:103BA000BFFF00F1004038BD91B101F12003402B6F
:103BB00011D8002908DA07EE100AF7EE007AC7EEEE
:103BC000877A17EE900A4942BDE83840FFF73ABFBE
:103BD0004FF07E5038BD02F083FEFFF776FE0246BE
:103BE0000D462046144602F07BFE22462B46FFF788
:103BF000CFFAFFF7ECFCFFF73FFB38BD002038BDE4
:103C00004FF0FF4038BD00BFB7EE007A07EE900AD4
:103C1000F4EE477AF1EE10FA32D011F0FF4238B5E7
:103C20000C460B4629D0FFEE006AF4EE667AF1EE00
:103C300010FA26D1B2F1FF4F1FD040F27F10674932
:103C4000E20DFF2A70D040F2FF1C624560D012F0F6
:103C5000FF020BD07F3A73D4C2F11702002A05DDB0
:103C6000012000FA02F2013A1A4269D12146BDE868
:103C7000384017EE900AFFF753BF17EE100A38BD11
:103C8000704710F0FF4F01461AD1002C4FEAD45272
:103C900025DB7F3A21D4D2F117021ED401219140B5
:103CA0000139214219D1172A07D09FED4D7A23FA05
:103CB00002F212F0010F47FE277A17EE900A38BD84
:103CC000C00DFF2853D19FED477ADFED457A002CD8
:103CD00067FE277A17EE900A38BD002038BDD2B2B1
:103CE0007F3A12D4D2F117020FD40120904001384C
:103CF00020420AD1172A03D024FA02F2D30704D5AE
:103D000001F0004040F0FF4038BD4FF0FF4038BDAB
:103D1000DFED347A9FED327AC0B27F282CBF17EEE8
:103D2000100A17EE900A38BDDFED2D7A9FED2D7A3F
:103D3000C0B27F282CBF17EE100A17EE900A38BDCC
:103D40000029E2DB17EE900A02F0CAFDFFF7BDFD85
:103D500002460D462046144602F0C2FD22462B467E
:103D6000FFF716FAFFF733FCFFF786FA38BD40F28B
:103D7000FF15A8424FEAD4527FF463AF002C18DB42
:103D80007F3AC2D4D2F11702BFD401219140013948
:103D90002142BAD1172A1CD09FED127ADFED127A98
:103DA00024FA02F212F0010F47FE277A17EE900A6A
:103DB00038BDD2B27F3A90D4D2F117028DD401210E
:103DC00091400139214288D1172A04D0DFED077ACA
:103DD0006BE7074838BD4FF0004038BD000080BF9A
:103DE000000000000000807F000080FF00000080D5
:103DF000000080FF10B5044602F04CFA28B10346DB
:103E0000034A2344934200D810BD0248FDF728FD21
:103E100000000820246A001002F044BAFFF7EABF4D
:103E2000FFF7FABFFFF7F8BF00B9704700F03CB9E1
:103E300010B5094B84B01C684CB1034600914FF09B
:103E4000FF3203A90548A047012004B010BD00F0CF
:103E50006DF9204604B010BDA8250020293E0010B1
:103E600000BEFDE7074A0346106838B1064903441F
:103E70008B428CBF4FF0FF301360704703490846F8
:103E80001160F3E7A425002000000820342600205C
:103E9000002070474FF0FF30704700BF08B5FFF7B4
:103EA000DFFF00BF38B5064C064DFFF741F8AC42C6
:103EB00004D254F8043B9847AC42FAD338BD00BF53
:103EC0008869001098690010036808461146184771
:103ED000437D2DE9F04781460F461646002B43D01F
:103EE000002A3BDD037D00204D1E014615F8012F01
:103EF000DFF884800A2A01F101040ED0A6421CD00A
:103F00002B782146A3F10D03B3FA83F315F8012FA3
:103F10005B090A2A01F10104F0D1002BEED18142A4
:103F2000A1EB000138441BDC02214046D9F80030E7
:103F30009847A64208D02046E2E7864204DD311ABF
:103F4000D9F8003038449847374417F8013CA3F1BA
:103F50000D03B3FA83F35B0989F81430BDE8F087E9
:103F6000D9F800309847DFE73846D9F800301146D5
:103F7000BDE8F047184700BFBC0B01102DE9F04722
:103F800082B00D46924699460746FEF76DFC4FF00B
:103F9000FF366FF000442F4A821841F10003964229
:103FA00074EB03013CBF324623462B4802F0BCFCB5
:103FB0006B1C804603D1384602F052FA0546274B67
:103FC000274E1C68274BB9F1000F18BF1E46B4B12D
:103FD000BAF1000F1AD1DFF8909001E0246974B1B2
:103FE0002368002BFAD0D9F800300BB19C42F5D1F0
:103FF00020462A463946B0472469002CF0D1B8F152
:10400000000F1FD1284602B0BDE8F0874FF00A0A22
:10401000DFF8549002E02469002CF0D02368002BD4
:10402000F9D0D9F800300BB1A342F4D12A46394671
:104030002046B047012220460DF107018DF807A068
:10404000B047E8E7044802F05FFC284602B0BDE84C
:10405000F08700BF40420F005C2000209C2500201C
:10406000C93E0010D13E0010A02500200A4A136866
:104070004BB1834202D109E0984207D003F110020C
:104080001B69002BF8D101B1106070470029FCD1E9
:1040900003691360016170479C25002008B500F09A
:1040A00033F9012008BD00BFF0B583B006468DF896
:1040B0000700FEF7D9FB4FF0FF356FF00044174AB9
:1040C000821841F10003954274EB03013CBF234683
:1040D0002A46134802F028FC124B07461C689CB184
:1040E000114D01E024697CB12368002BFAD02B68C4
:1040F0000BB19C42F6D1204601220DF10701FFF7DA
:10410000E7FE2469002CEFD117B9304603B0F0BDAB
:10411000034802F0F9FB304603B0F0BD40420F0007
:104120005C2000209C250020A025002038B50446F6
:1041300002F096F9012305461A4620462946FFF764
:104140001DFF084B1C682CB163682BB1984724698C
:10415000002CF9D1284638BD2469002CF4D128461A
:1041600038BD00BF9C250020B1F1000C1DDD0F4AB9
:104170000F4B126830B5D31AB3FA83F30D240D4DEB
:104180005B09411E35F913E08C4411F8010F864597
:1041900006D093699B06FCD461451060F5D130BD13
:1041A00093699D06FCD41460F3E770472C26002029
:1041B0000080074028260020224BB1F1000C10B4EB
:1041C0001C682EDD034600201F4A591E12689369A1
:1041D000DB0617D401309369DB06FCD413688445F1
:1041E00001F8013FF3D14CB150211346916353F8CC
:1041F000342F02F0380203F580531A6060465DF8F0
:10420000044B70474CB150211346916353F8342F3F
:1042100002F0380203F580531A6078B15DF8044B60
:1042200070475CB1084B50211A681346916353F8EC
:10423000342F02F0380203F580531A606FF0020049
:10424000ECE700BF642500202C260020054B1B68EE
:1042500033B10021044A0548126800689163184789
:10426000704700BF642500202C2600206825002010
:10427000024B1A6893691B07FCD470472C26002058
:10428000F8B51C4F1C4D3A681C4EAA4214BF21259C
:1042900022250446D6F800C018B1BCF1000F10D09A
:1042A000F8BDBCF1000FFBD0014690632846FDF736
:1042B000C5FB28461249FDF7FBFC124B34601C601D
:1042C000F8BD0B460F4A0E49306028461360FDF7D3
:1042D000CBFB01212846FDF7B1FB3A68502113467C
:1042E000916353F8342F02F0380203F580531A60BB
:1042F000F8BD00BF2C260020008007406425002068
:104300004D4200106825002010B50E490E4C0F4894
:104310000F4A104B007821600020022112781B7890
:10432000FDF7F2F902210120FDF7EEF94FF4E1313A
:104330002068FEF7E7FABDE8104001210648FFF7C4
:1043400095BE00BF000007402C260020C8100110B9
:10435000C4100110C0100110001B002010B504464D
:1043600004F12F4404F56004084B240D82B0A4002E
:1043700000932246E31C0648FDF7D2FA8442CCBFE4
:104380004FF0FF30001B02B010BD00BFA86A001044
:10439000702500202DE9F04789460546FDF778FA9B
:1043A000012399F8042099F905C005F12F4EDFF893
:1043B000D8800EF5600E93404FEA1E5EBCF1000FF0
:1043C00058F82E7003F1FF3346DBC2F120018C4513
:1043D000644631DC03FA0CF139422DD16646D5F83A
:1043E00068A199F80710BAF1000F2CD0C9072CD496
:1043F000BCF1000F01DB664527D1B3401F423CD121
:10440000D9F8001082B1B44601EB420931F8022B11
:104410000CF1120AB2F5005F38BF921949450CF150
:10442000010C45F82A20F1D13B4348F82E30FDF726
:1044300041FA2046BDE8F0874FF0FF34FDF73AFA25
:104440002046BDE8F0874907D2D56FF00A04FDF792
:1044500031FA2046BDE8F087D2F120040DD403FAEA
:1044600004F13942264603D1B9E739422646B6D08F
:10447000013C661C03FA04F1F7D16FF00804FDF764
:1044800019FA2046BDE8F087502500202DE9F041BB
:10449000D0F868419DF81860121B1F2A38D84EF2D8
:1044A0009F044EF280054FF4003801EB410C002EC2
:1044B00018BF254600EBCC0404F5435400EBCC0CAC
:1044C000052BDCF8DC704FEA410EDCF8CC60C4F858
:1044D0000C800CD95401053B44F0A0540532052B47
:1044E000CCF8DC4002F01F02CCF8D850F2D871446E
:1044F00000EBC1010020520142EA8363C1F8DC30C5
:10450000C1F8D850C1F8DC70C1F8CC60BDE8F081CA
:104510006FF00400FAE700BFF0B5012504688D4094
:1045200024EA05040460B3B3D3E901561F68DC68CC
:1045300001EB410300EBC303C3F8C8704FEA410C21
:10454000C3F8D060C3F8CC50C3F8DC400CEB0103D7
:104550004FF0013500EBC30C4FF0004600EBC30EEB
:1045600001230EF5865E0C1D01F108078D40CEF883
:10457000106003FA04F4CEF8106002F01F028560A8
:10458000BB4000F5005004600EF1100E03600020E7
:10459000CCF8D820F0BD4FF480374FF440264FF4CC
:1045A000F83501EB410400EBC404C4F8C8704FEACD
:1045B000410CC4F8D060C4F8CC50C4F8DC30C5E776
:1045C00008B5FFF72BFC08BD00F0E0F900F01CFA7D
:1045D000002008BD1E494B6830B5A0F1080550F811
:1045E000084C2BB305EB040E734521D85A6826D02E
:1045F00001F1040C32B910E0516803F1040C1346C8
:1046000049B10A469645F7D805D1DEF80020144492
:10461000DEF804205A60DCF800301A6899188D42E0
:104620000AD05B6840E90243DCF800305D6030BDD1
:1046300040F8043C4D6030BD22441A6030BD1B6818
:1046400040F8042C234440F8083C4D6030BD00BFC6
:104650006820002000F108031349082B486838BF80
:104660000823F8B10733043123F0070302E0011DEA
:10467000406880B102689342F9D870B4D41A466891
:10468000072C09D9C5186E60C4500868036008304B
:104690000D6070BC704770473546026008300D6091
:1046A00070BC7047704700BF6820002010B500F153
:1046B00080042046FFF79EFB38B10346802200218C
:1046C000184600F069FF803010BD2046FFF7C2FF9A
:1046D00003460028F2D100F0D5FC00BF064B80381D
:1046E000D3E902231344984203D2824201D2FFF756
:1046F00071BFFFF791BB00BF682000202DE9F0419A
:104700000026394D88B03948EE60C5E9016600F0F1
:1047100035FF0822364B09210496CDE90223354A9C
:104720000423CDE90512079300283BD00446324EFE
:1047300023780F2230463A2B08BF0134214601F07E
:104740007BFD10B9E37B2E2B17D020463A2100F0D9
:1047500075FF04460028EBD1079A049C402AA8BFA5
:104760004022002C08BF06243E3402FB04F4A400BF
:10477000EC60DCB908B0BDE8F081103402AF21462E
:10478000D7E900804246B8F1000F02D001F054FD95
:1047900018B914F808303D2B12D00C3708AB9F42E3
:1047A000EDD1D2E74FF488631C46EB602046FFF75B
:1047B00021FBA860A8B100236860C0E90043D9E7E5
:1047C00008F10100002201A9204401F01FF9019C19
:1047D00023783A2B01D0002BB7D10028A8BFB860AE
:1047E000B3E7E860C6E700BF68200020CC6A00108D
:1047F000E06A0010EC6A0010F86A00101EB400F0C5
:104800008DF81EBC02F074F8F0B51D46037883B035
:104810000C46472B19D00020254E336801903046B6
:104820009B68984778B1019B02271B680193236816
:104830002046314601AA1C690123A04720BB074638
:10484000384603B0F0BD0127F1E743784E2BE2D1A3
:104850008378552BDFD1C378432BDCD10379462BEA
:104860001BD0432BD7D143792B2BD4D183792B2B3E
:10487000D1D1C379012BCED84FF0000350F8206C72
:10488000019306D05830C8E7019B38462B6003B02F
:10489000F0BD304656F8786CBFE743794F2BBAD15C
:1048A0008379522BB7D1C0790028B4D1014EB4E737
:1048B000640C0110380C011010B5044600F0FAF831
:1048C000224612F82039472B04D0836823BB82602C
:1048D000012010BD63784E2BF7D1A378552BF4D16E
:1048E000E378432BF1D12379432BEED163792B2B42
:1048F000EBD1A3792B2BE8D1E379012BE5D854F840
:10490000043C0133012B44F8043CE1D1836844F8B2
:10491000083C8260012010BD00F0B4FB08B500F037
:10492000C9F8836883B393F82020472A04D0002273
:10493000826003F1200008BD93F821204E2AF6D1B1
:1049400093F82220552AF2D193F82320432AEED15E
:1049500093F82420432AEAD193F825202B2AE6D184
:1049600093F826202B2AE2D193F82720012ADED8BB
:10497000DA69013ADA61002ADBD1996900228160A3
:1049800003F120009A6108BD00F07CFB38B50446B5
:1049900000F090F80568224612F82039472B03D022
:1049A00085BB0260284638BD63784E2BF8D1A378CA
:1049B000552BF5D1E378432BF2D12379432BEFD15B
:1049C00063792B2BECD1A3792B2BE9D1E379012B44
:1049D000E6D854F80C3C002B11DB013344F80C3CB6
:1049E0009542436803F1FF33436002D044F8105C02
:1049F0000260656A204601F08BFF284638BDC3F18E
:104A00000103EBE700F03EFB08B500F04FF802466B
:104A1000006870B390F82010472906D0002120309C
:104A2000BDE80840116001F04FBF90F821104E29F9
:104A3000F4D190F822105529F0D190F82310432991
:104A4000ECD190F824104329E8D190F825102B29B7
:104A5000E4D190F826102B29E0D190F827100129F5
:104A6000DCD84169002905DB013908D04B1C0DD089
:104A7000416108BD0131FBD103691360F8E70169A9
:104A80002030BDE80840116001F01EBF00F0FAFAC6
:104A9000704700BF00487047086B001010B504460F
:104AA0000421FFF7BFF9204610BD00BF0048704742
:104AB000202500200048704720250020502870B590
:104AC0001DD0844600F00F000C2855D8DFE800F018
:104AD000074426071E545454542A22071E00104629
:104AE00050F8046B4EB10CF07004102C08BF114646
:104AF0001CF0800F0E4418BF36681E6070BDD01CBD
:104B000020F0030050F8046B1E6070BD104650F892
:104B1000086BE7E7104630F9026BE3E7104630F820
:104B2000026BDFE700261046344610F8015B05F003
:104B30007F0E15F0800F0EFA04FE04F1070446EA1A
:104B40000E06F2D11F2CCDD86D06CBD54FF0FF3518
:104B500005FA04F42643C6E700261046344610F84A
:104B6000015B05F07F0E2D060EFA04FE04F107042A
:104B700046EA0E06F3D4B5E700F05AFFFF2808B561
:104B8000034612D003F070030846302B13D005D82B
:104B9000202B09D1BDE8084001F0AEBE402B06D164
:104BA000BDE8084001F0B8BE03D8002008BD502B76
:104BB000FBD000F03DFFBDE8084001F0B9BE00BFEA
:104BC000F8B50C460646154608B101F0A5FE28606A
:104BD00014F8017BFF2F28D16860204610F8012BC4
:104BE000FF2A32D00024102322462B7510F8011B17
:104BF00001F07F03090603FA02F302F1070244EA17
:104C00000304F3D403190024EB6010F8013B22469F
:104C10006B7510F8011B01F07F03934007321C43B2
:104C20000B06F6D404442C61F8BD31463846FFF734
:104C3000A5FF224601462B1D3846FFF73FFF0446DD
:104C4000204610F8012BFF2ACCD100232A75DAE781
:104C50002DE9F04F002395B00F4616460A9300F059
:104C60000303012B00F0A480022B0AD13146384601
:104C700001F032FE002840F09080082015B0BDE819
:104C8000F08F002B40F0F08110F00804EED10EAB55
:104C90004FF001080293029B0C2230460E970093BE
:104CA0000023194601F048FE304601F011FE039042
:104CB0000028DBD044EA080330460DF134080493A1
:104CC000DDE90221FFF77CFF9DF84C30814631463B
:104CD00018460693FFF752FF002305900F2219464E
:104CE0001090CDF80080304601F0EAFD0D9BDDF814
:104CF00048B023F00103D94503F1FF3532D29DF8C6
:104D00004DA00E9C00215046FFF738FF4A46014651
:104D10000BAB5046FFF7D2FE814600215046FFF70D
:104D20002DFF4A4601460CAB5046FFF7C7FE8146B1
:104D300000215046FFF722FF4A46014643465046AF
:104D4000FFF7BCFE81460020024619F8011B01F066
:104D50007F039340073218430B06F6D40B9B234482
:104D6000AB421ED94FF000090123CA46049AD1076D
:104D700040F1D280002330460D22CDF80080194644
:104D80000A9C01F09DFD039B06207C62C7F82890D9
:104D9000C7E90B3A0D9B3B6270E7092015B0BDE8EF
:104DA000F08F0C9A1344AB4261D8D945AAD3D9E706
:104DB00010F008040EAB03D002934FF002086AE72C
:104DC0001A460D6A029321462346009230460D2270
:104DD00001F076FD0E9B9D42EFD1029A23462146BB
:104DE000304600920C220E9701F0A6FDD7F830A0B5
:104DF000D7E90A43BAF1000F36D0A1460DF13408C5
:104E00000393B9F1000FC0F2F98003250023304667
:104E1000CDF800801A4619460D9701F08DFD00234C
:104E200001223046CDF8008019460D9401F084FD32
:104E300000230F2230461946CDF8008001F040FDD6
:104E40000D9A0023304602F00102CDF80080194689
:104E500042EA0A020D920F2201F06EFD022D68D087
:104E6000072015B0BDE8F08F384600F005FB0D9B1C
:104E7000002B3FF4FBAE0F9A03EB020A002800F070
:104E8000E08001380BEB0004BAF1000F3FF4EEAE06
:104E9000049B13F00803089300F0D780734B3B602A
:104EA000734B7B60DDF818B00023CDF818A00BF031
:104EB00007029A460796099200210A4614F8010B48
:104EC00000F07F03050603FA02F302F1070241EA4C
:104ED0000301F3D41F2A05D8400603D501239340CC
:104EE0005B4219430025894626462A4616F8010BDF
:104EF00000F07F03934007321D430306F6D41F2AB8
:104F00001FD846061DD5012393405B421D4351BB6C
:104F10004FF0010A2C44CFE7049A12070DD5012B5C
:104F200000F0A080B9F1000FC0F298804C46032534
:104F30006CE73846FFF7C0FC92E7012B94D04C4653
:104F40005FE781B94FF0010A002DE3D15346DDE957
:104F500006A6002B3FF48AAE049BD8073FF586AE29
:104F60000024022552E7002921DC6FF04043119A0A
:104F70005B1A02EB830652F823100FB1089B2BB18A
:104F80000029E1D1DDE906A60323EFE60A9B0D9394
:104F900021B9F7E756F8041F0029F3D031444346FE
:104FA00000223846FFF730FC0028F3D0CCE7BBF1F5
:104FB000FF0F44D0099A042A56D8DFE802F00355BF
:104FC0001C0319008B005B42119A584605991A443C
:104FD0004346FFF773FD0D990029D3D0002FB3D0BE
:104FE0000AAB00223846FFF70FFC0028ACD0C9E717
:104FF000CB005B42E8E74B005B42E5E7DDE90221DD
:105000003046FFF7DDFD31469DF84C00FFF7B6FD59
:105010006FF0404205461198121B50F8223000EB09
:10502000820033B10246002352F8041F01330029E5
:10503000FAD17863C7E90A3504233B63E5E6002328
:10504000C2E7BAF1000F87D110E6FB79012B0CBF44
:1050500057F8203C07F158030A9323E700F01EF8A5
:10506000FFF794FC00F00EF800F0E2FC474E5543C9
:10507000464F520008B5804700F0DAFCFFF786FC87
:1050800000F0D6FC08B5024BD3E8AF0FFFF7F2FFF4
:105090001C1B002008B58047FFF7F4FF08B5024B42
:1050A000D3E8AF0FFFF7F6FF181B0020014BD3E842
:1050B000AF0F70471C1B0020014BD3E8AF0F7047A8
:1050C000181B0020012810B516D8A1F12803D3E839
:1050D000EF2F013AC3E8E02F0028F8D15AB951F870
:1050E0001C3C01F158040BB1204698472046BDE80E
:1050F0001040FFF7F3BA10BD51F8140CFFF7BAFFD8
:10510000002310B5044640F8803C40E91E12FFF72A
:10511000D3FF44F8700CFFF7C9FF0749074A084B53
:1051200044F86C0CA4F1800044F8581C44F8542C4A
:1051300044F8503C10BD00BF474E5543432B2B0055
:10514000C550001070B504460D461646FFF7B2FC78
:1051500003462046324629465C6801345C60FFF70E
:10516000CFFF0123044644F8283B204601F0E8FB2A
:105170002046FFF70BFCFFF785FF00BF10B5FFF7D8
:1051800099FCD0E900420132426064B194F82020D9
:10519000472A0AD0002202602034204601F0A4FBF6
:1051A0002046FFF7F3FBFFF76DFF94F821204E2A0E
:1051B000F0D194F82220552AECD194F82320432AE8
:1051C000E8D194F82420432AE4D194F825202B2A0E
:1051D000E0D194F826202B2ADCD194F82720012A4C
:1051E000D8D8626952426261D6E700BF034B10B55E
:1051F0000446036000F0C4F8204610BDBC0C01104A
:10520000054B10B50446036000F0BAF80C212046A7
:10521000FEF708FE204610BDBC0C011070B582B030
:1052200004460D46069E964209D0A06829460468A9
:105230000696246AA44602B0BDE87040604719464D
:105240000192009300F064F8DDE900320028ECD010
:10525000062002B070BD00BF2DE9F04F81B00D46B1
:1052600019461C4607461646DDE90A8BDDE90CA9FE
:1052700000F04EF880B9D04527D0B86823463246B2
:1052800029460468CDE90CA9CDE90A8BE469A44656
:1052900001B0BDE8F04F6047002DC9F8008089F8E3
:1052A00004600CDBA844C24514BF4FF001084FF066
:1052B000060889F80680002001B0BDE8F08F0235AD
:1052C000F9D1012389F80630F5E75946384600F050
:1052D0001FF80028D1D089F80560ECE72DE9F041EE
:1052E00007460C4615461E4600F084F848B9B868D3
:1052F000214633462A460468A469A446BDE8F04125
:105300006047BDE8F08100BF704700BF00207047D4
:10531000814211D0406808B503782A2B0AD0496829
:105320000B782A2B08BF013100F0F0F9B0FA80F0B9
:10533000400908BD002008BD01207047036870B512
:10534000002484B09E6910231546039402936B4693
:105350001268CDE90044B0479DF8043003F006031D
:10536000062B04D1009B01202B6004B070BD2046A9
:1053700004B070BD009890420CBF06200120704719
:10538000034B10B504460360FFF7BEFF204610BD77
:10539000300D0110054B10B504460360FFF7B4FF54
:1053A00008212046FEF73EFD204610BD300D0110BD
:1053B0002DE9F041069F1D4604469046DDE908367A
:1053C0009F420CD029462046FFF7A2FF20B10123BF
:1053D000376086F80480B3710020BDE8F08107993A
:1053E000FFF796FF0028EDD0002086F80580BDE885
:1053F000F08100BF38B515461C46FFF789FF00B99C
:1054000038BD082206232560E260237138BD00BF45
:105410002DE9F041064617461D460C46FFF778FF7A
:1054200048B9032D07D823683A46314620465B69C0
:10543000BDE8F0411847BDE8F08100BF0378472B75
:1054400001D00020704743784E2BFAD18378552B3A
:10545000F7D1C378432BF4D10379432BF1D14379AE
:105460002B2BEED183792B2BEBD1C07901288CBF6C
:1054700000200120704700BF10B530B10446FFF78F
:1054800085FA2046FFF7DAFF08B9FFF7FBFD54F86D
:10549000140CFFF7EFFD00BF2DE9F04F83B002467B
:1054A000FFF7CCFF38B1D2F828A0002652E90684D5
:1054B000D2E90C7505E004460126804605460746FC
:1054C00082461046FFF762FA0EB1FFF7E7FD40464D
:1054D000FFF7E0FDFFF75AFA0EB1FFF7D3FDFFF734
:1054E000E5FA036827F003084FF0000993F8272036
:1054F00003F1200B012A0CBF1A6803F17802009215
:10550000CA451ADD2F6807B12F446B460022394681
:105510005846FFF779F908B1FFF730FE3B6801AA5A
:10552000019038460E491F690123B847002818BF6B
:10553000064609F101094544E2E746B10420FFF7B8
:10554000B5F8084B084A06490360FFF7FBFD204603
:10555000FFF790FDFFF758FAFFF756FAFFF74EF9FD
:105560000C0C0110740C0110914A0010024B0A46F9
:105570000146186800F022BF201B002000B583B050
:10558000044B014601AA186800F018FF03B05DF84B
:1055900004FB00BF201B002070B5860747D0541EB7
:1055A000002A3ED0CAB2034601E0013C39D303F8D9
:1055B000012B9D07F9D1032C2CD9CDB20F2C05EB73
:1055C000052505EB054535D9A4F1100C03F1100EA6
:1055D0001A462CF00F064FEA1C1CB644C2E90055CF
:1055E000C2E9025510327245F8D10CF1010214F0F3
:1055F0000C0F04F00F0C03EB021213D0ACF10403F8
:1056000023F003030433134442F8045B9342FBD1B9
:105610000CF003042CB1C9B21C4403F8011BA342D3
:10562000FBD170BD64461346002CF4D1F9E7034664
:105630001446C0E71A46A446E0E700BF11F0FF0198
:10564000034600F0030239D08ABB10B501EB012EEE
:1056500002680EEB0E4EA2F101338EEA020423EA39
:105660000203A4F1013222EA0402134313F0803F43
:105670000FD150F8044F84EA0E0CA4F10133ACF1C1
:10568000013223EA040322EA0C02134313F0803FA1
:10569000EFD0037823B936E010F8013F002B32D069
:1056A0009942F9D110BD8A4228D09A0729D01A7898
:1056B00018460133002AF6D110467047CAB902686D
:1056C000A2F1013323EA020313F0803F08D150F81E
:1056D000042FA2F1013323EA020313F0803FF6D036
:1056E00003785BB110F8013F002BFBD1704799079D
:1056F00005D0184613F8012B002AF8D17047184638
:10570000DDE71846A1E7184610BD00BF80EA010C8E
:105710001CF0030F37D110F0030C20F0030021F030
:10572000030150F8042B08BF51F8043B0ED08CF055
:10573000030C6FF07F434FEACC0C23FA0CFC51F8BA
:10574000043B42EA0C0243EA0C0300BFA2F1013C15
:105750009A4201BF2CEA020C1CF0803F50F8042B47
:1057600051F8043BF2D04FEA02604FEA12220128BE
:1057700028BFB0EB036F08BF1B0AF4D003F0FF0390
:10578000000EC01A704710F0030F0AD010F8012B5A
:1057900011F8013B012A28BF9A42F4D0A2EB030082
:1057A00070474DF8045D50F8042B01F0030521F01B
:1057B000030151F8043B022D26D04DD822F07F453D
:1057C000B5EB132FA2F1013C2CEA020C0DD11CF019
:1057D000803C08BF51F8043B0AD185EA0205B5EBCD
:1057E000036F0CD150F8042BE8E74FEA13235BE07A
:1057F0003CF07F4C54D10B784FEA126554E04FEAED
:10580000126503F0FF034FE04FEA0245A2F1013CAD
:105810004FEA15452CEA020CB5EB134F18D11CF0DA
:10582000803C08BF51F8043B07D185EA0205B5EB7F
:10583000034F09D150F8042BE6E75FEA0C4C2FD157
:105840000B884FEA12452FE04FEA03434FEA124517
:105850004FEA134328E000BF02F0FF05B5EB136FDA
:10586000A2F1013C2CEA020C0DD11CF0803C08BFD7
:1058700051F8043B0AD185EA0205B5EB032F0AD1A2
:1058800050F8042BE8E74FEA13630DE012F0FF0F26
:1058900006D051F8043B4FEA122523F07F4303E082
:1058A0004FF0000020BC704705F0FF0203F0FF003E
:1058B000012828BF904204BF2D0A1B0AF4D0A2EB96
:1058C000000020BC704700BF2DE9F04780460C4621
:1058D0004548264614F801EB10F80EC01CF0080CE1
:1058E000F7D1BEF12D0F5BD0BEF12B0F3AD065463C
:1058F00033F010003ED04FF0FF379A46B7FBF3F776
:1059000003FB07F96FEA0909002630460EE0AEF105
:10591000370C63451DDD002E04DBB84202D833D1BD
:10592000CC4531DD4FF0FF3614F801EBAEF1300C11
:10593000BCF1090FEDD9AEF1410CBCF1190FE6D95C
:10594000AEF1610CBCF1190F03D8AEF1570C6345F1
:10595000E1DC731C1CD005B140420AB1F6B91160FC
:10596000BDE8F08733F0100094F800E0654606F1DA
:105970000204C0D1BEF1300F17D06BBB0A234FF029
:1059800005091A4F9A46BFE700FB0AC00126CBE77C
:1059900022233046C8F80030002AE1D0611EDEE73D
:1059A00094F800E00125B41CA2E7207800F0DF00A5
:1059B000582807D083B908234FF007096FF06047D4
:1059C0009A46A1E7102394F801E04FF00F09023442
:1059D0006FF070479A4697E710234FF00F096FF06A
:1059E00070479A4690E700BF550D01109999991993
:1059F0006AE700BF10B4044C13460A46014620680B
:105A00005DF8044B60E700BF201B002010B4044C7D
:105A100013460A46014620685DF8044B54E700BF70
:105A2000201B0020014B1868704700BF201B00207E
:105A3000062008B500F0F0FD0120FEF711FA00BFC6
:105A400001F10B03162B2DE9F04F074683B023D845
:105A5000102900F2AF8000F0F9FC10251823022075
:105A6000C24E33445C68A3F10802944200F078818E
:105A70006368384623F00303D4E902122344CA6062
:105A800091605A68083442F001025A6000F0E0FC6C
:105A9000204603B0BDE8F08F002B23F00705C0F2CD
:105AA0008980A94200F2868000F0D0FCB5F5FC7F29
:105AB000C0F0B2816B0A00F08180042B00F27C817F
:105AC000AB0903F1390003F1380EC300A74E33448C
:105AD000A3F1080C5C68A44507D10DE0002AE16839
